{
  "contractName": "Items",
  "abi": [
    {
      "constant": false,
      "inputs": [
        {
          "internalType": "uint8",
          "name": "pointsPerSecond",
          "type": "uint8"
        },
        {
          "internalType": "uint8",
          "name": "pointsPerClick",
          "type": "uint8"
        }
      ],
      "name": "createItem",
      "outputs": [
        {
          "internalType": "uint8",
          "name": "",
          "type": "uint8"
        }
      ],
      "payable": false,
      "stateMutability": "nonpayable",
      "type": "function"
    },
    {
      "constant": true,
      "inputs": [
        {
          "internalType": "uint8",
          "name": "id",
          "type": "uint8"
        }
      ],
      "name": "hasItem",
      "outputs": [
        {
          "internalType": "bool",
          "name": "",
          "type": "bool"
        }
      ],
      "payable": false,
      "stateMutability": "view",
      "type": "function"
    },
    {
      "constant": true,
      "inputs": [],
      "name": "getItems",
      "outputs": [
        {
          "components": [
            {
              "internalType": "uint8",
              "name": "id",
              "type": "uint8"
            },
            {
              "internalType": "uint256",
              "name": "pointsPerSecond",
              "type": "uint256"
            },
            {
              "internalType": "uint256",
              "name": "pointsPerClick",
              "type": "uint256"
            },
            {
              "internalType": "address",
              "name": "owner",
              "type": "address"
            }
          ],
          "internalType": "struct Items.Item[]",
          "name": "",
          "type": "tuple[]"
        }
      ],
      "payable": false,
      "stateMutability": "view",
      "type": "function"
    }
  ],
  "bytecode": "0x608060405260008060006101000a81548160ff021916908360ff16021790555034801561002b57600080fd5b506109f98061003b6000396000f3fe608060405234801561001057600080fd5b50600436106100415760003560e01c8063410d59cc146100465780637eba15f414610064578063952282bd14610094575b600080fd5b61004e6100c4565b60405161005b9190610848565b60405180910390f35b61007e600480360361007991908101906105c1565b6101e7565b60405161008b919061086a565b60405180910390f35b6100ae60048036036100a991908101906105ea565b6102f2565b6040516100bb91906108e5565b60405180910390f35b6060600260003373ffffffffffffffffffffffffffffffffffffffff1673ffffffffffffffffffffffffffffffffffffffff168152602001908152602001600020805480602002602001604051908101604052809291908181526020016000905b828210156101de57838290600052602060002090600402016040518060800160405290816000820160009054906101000a900460ff1660ff1660ff16815260200160018201548152602001600282015481526020016003820160009054906101000a900473ffffffffffffffffffffffffffffffffffffffff1673ffffffffffffffffffffffffffffffffffffffff1673ffffffffffffffffffffffffffffffffffffffff168152505081526020019060010190610125565b50505050905090565b60008060009054906101000a900460ff1660ff168260ff161061023f576040517f08c379a0000000000000000000000000000000000000000000000000000000008152600401610236906108c5565b60405180910390fd5b3373ffffffffffffffffffffffffffffffffffffffff16600160008460ff1660ff16815260200190815260200160002060030160009054906101000a900473ffffffffffffffffffffffffffffffffffffffff1673ffffffffffffffffffffffffffffffffffffffff16146102e9576040517f08c379a00000000000000000000000000000000000000000000000000000000081526004016102e0906108a5565b60405180910390fd5b60019050919050565b6000808360ff1611610339576040517f08c379a000000000000000000000000000000000000000000000000000000000815260040161033090610885565b60405180910390fd5b61034161056b565b60405180608001604052806000809054906101000a900460ff1660ff1681526020018560ff1681526020018460ff1681526020013373ffffffffffffffffffffffffffffffffffffffff16815250905080600160008060009054906101000a900460ff1660ff1660ff16815260200190815260200160002060008201518160000160006101000a81548160ff021916908360ff160217905550602082015181600101556040820151816002015560608201518160030160006101000a81548173ffffffffffffffffffffffffffffffffffffffff021916908373ffffffffffffffffffffffffffffffffffffffff160217905550905050600260003373ffffffffffffffffffffffffffffffffffffffff1673ffffffffffffffffffffffffffffffffffffffff168152602001908152602001600020819080600181540180825580915050906001820390600052602060002090600402016000909192909190915060008201518160000160006101000a81548160ff021916908360ff160217905550602082015181600101556040820151816002015560608201518160030160006101000a81548173ffffffffffffffffffffffffffffffffffffffff021916908373ffffffffffffffffffffffffffffffffffffffff16021790555050505060008081819054906101000a900460ff168092919060010191906101000a81548160ff021916908360ff160217905550506000809054906101000a900460ff1691505092915050565b6040518060800160405280600060ff1681526020016000815260200160008152602001600073ffffffffffffffffffffffffffffffffffffffff1681525090565b6000813590506105bb8161099f565b92915050565b6000602082840312156105d357600080fd5b60006105e1848285016105ac565b91505092915050565b600080604083850312156105fd57600080fd5b600061060b858286016105ac565b925050602061061c858286016105ac565b9150509250929050565b600061063283836107c6565b60808301905092915050565b6106478161094a565b82525050565b600061065882610910565b6106628185610928565b935061066d83610900565b8060005b8381101561069e5781516106858882610626565b97506106908361091b565b925050600181019050610671565b5085935050505092915050565b6106b48161095c565b82525050565b60006106c7603a83610939565b91507f506f696e747320706572207365636f6e64206d757374206265206e6f6e2d7a6560008301527f726f20616e64206e6f6e2d6e65676174697665206e756d6265720000000000006020830152604082019050919050565b600061072d602b83610939565b91507f596f75206d75737420626520746865206f776e6572206f66207468652069746560008301527f6d20746f206765742069740000000000000000000000000000000000000000006020830152604082019050919050565b6000610793601483610939565b91507f4974656d204944206f7574206f662072616e67650000000000000000000000006000830152602082019050919050565b6080820160008201516107dc600085018261082a565b5060208201516107ef602085018261081b565b506040820151610802604085018261081b565b506060820151610815606085018261063e565b50505050565b61082481610988565b82525050565b61083381610992565b82525050565b61084281610992565b82525050565b60006020820190508181036000830152610862818461064d565b905092915050565b600060208201905061087f60008301846106ab565b92915050565b6000602082019050818103600083015261089e816106ba565b9050919050565b600060208201905081810360008301526108be81610720565b9050919050565b600060208201905081810360008301526108de81610786565b9050919050565b60006020820190506108fa6000830184610839565b92915050565b6000819050602082019050919050565b600081519050919050565b6000602082019050919050565b600082825260208201905092915050565b600082825260208201905092915050565b600061095582610968565b9050919050565b60008115159050919050565b600073ffffffffffffffffffffffffffffffffffffffff82169050919050565b6000819050919050565b600060ff82169050919050565b6109a881610992565b81146109b357600080fd5b5056fea365627a7a723158205d8150425bb35d22c49f3a50a0b50136391a13fe877d754558bb1bd3020050396c6578706572696d656e74616cf564736f6c63430005100040",
  "source": "// SPDX-License-Identifier: MIT\r\npragma solidity >=0.4.22 <0.8.0;\r\n\r\npragma experimental ABIEncoderV2;\r\n\r\ncontract Items{\r\n    struct Item {\r\n        uint8 id;   // short name (up to 32 bytes)\r\n        uint pointsPerSecond; // number of accumulated votes\r\n        uint pointsPerClick;\r\n        address owner;\r\n    }\r\n\r\n    uint8 _id = 0;\r\n    mapping (uint8 => Item) items_list;\r\n\r\n    mapping (address => Item[]) itemList;\r\n    \r\n\r\n    function createItem(uint8 pointsPerSecond, uint8 pointsPerClick) public returns (uint8) {\r\n        require(pointsPerSecond > 0, \"Points per second must be non-zero and non-negative number\");\r\n        Item memory newItem = Item(_id, pointsPerSecond, pointsPerClick, msg.sender);\r\n        \r\n        items_list[_id] = newItem;\r\n        itemList[msg.sender].push(newItem);\r\n        \r\n        _id++;\r\n        \r\n        \r\n        return _id;\r\n    }\r\n    \r\n    function hasItem(uint8 id) public view returns (bool) {\r\n        require(id < _id, \"Item ID out of range\");\r\n        require(items_list[id].owner == msg.sender, \"You must be the owner of the item to get it\");\r\n        \r\n        return true;\r\n    }\r\n    \r\n    function getItems() public view returns (Item[] memory) {\r\n        return itemList[msg.sender];\r\n    }\r\n}",
  "sourcePath": "C:/Users/smithj40/Documents/Blockchain/Final_Project/central-clicker-truffle/contracts/Items.sol",
  "compiler": {
    "name": "solc",
    "version": "0.5.16+commit.9c3226ce.Emscripten.clang"
  },
  "schemaVersion": "3.3.1",
  "updatedAt": "2020-12-17T02:11:09.464Z",
  "networkType": "ethereum",
  "devdoc": {
    "methods": {}
  },
  "userdoc": {
    "methods": {}
  }
}