{
  "contractName": "Points",
  "abi": [
    {
      "constant": false,
      "inputs": [
        {
          "internalType": "uint8",
          "name": "new_points",
          "type": "uint8"
        }
      ],
      "name": "pushPoints",
      "outputs": [],
      "payable": false,
      "stateMutability": "nonpayable",
      "type": "function"
    },
    {
      "constant": false,
      "inputs": [
        {
          "internalType": "uint8",
          "name": "new_points",
          "type": "uint8"
        }
      ],
      "name": "removePoints",
      "outputs": [],
      "payable": false,
      "stateMutability": "nonpayable",
      "type": "function"
    },
    {
      "constant": true,
      "inputs": [],
      "name": "getTotalPoints",
      "outputs": [
        {
          "internalType": "uint8",
          "name": "",
          "type": "uint8"
        }
      ],
      "payable": false,
      "stateMutability": "view",
      "type": "function"
    }
  ],
  "bytecode": "0x608060405234801561001057600080fd5b506103b9806100206000396000f3fe608060405234801561001057600080fd5b50600436106100415760003560e01c80631c95206414610046578063326bfcc114610062578063e66801a514610080575b600080fd5b610060600480360361005b9190810190610268565b61009c565b005b61006a61014e565b6040516100779190610326565b60405180910390f35b61009a60048036036100959190810190610268565b6101a1565b005b60008160ff16116100e2576040517f08c379a00000000000000000000000000000000000000000000000000000000081526004016100d990610306565b60405180910390fd5b806000803373ffffffffffffffffffffffffffffffffffffffff1673ffffffffffffffffffffffffffffffffffffffff16815260200190815260200160002060008282829054906101000a900460ff160392506101000a81548160ff021916908360ff16021790555050565b60008060003373ffffffffffffffffffffffffffffffffffffffff1673ffffffffffffffffffffffffffffffffffffffff16815260200190815260200160002060009054906101000a900460ff16905090565b60008160ff16116101e7576040517f08c379a00000000000000000000000000000000000000000000000000000000081526004016101de90610306565b60405180910390fd5b806000803373ffffffffffffffffffffffffffffffffffffffff1673ffffffffffffffffffffffffffffffffffffffff16815260200190815260200160002060008282829054906101000a900460ff160192506101000a81548160ff021916908360ff16021790555050565b6000813590506102628161035f565b92915050565b60006020828403121561027a57600080fd5b600061028884828501610253565b91505092915050565b600061029e602f83610341565b91507f506f696e7473206d757374206265206e6f6e2d7a65726f20616e64206e6f6e2d60008301527f6e65676174697665206e756d62657200000000000000000000000000000000006020830152604082019050919050565b61030081610352565b82525050565b6000602082019050818103600083015261031f81610291565b9050919050565b600060208201905061033b60008301846102f7565b92915050565b600082825260208201905092915050565b600060ff82169050919050565b61036881610352565b811461037357600080fd5b5056fea365627a7a72315820cf4ceedd7339a9835a9aa46417fa4d1090db79247a84bfd5644c85767f659c776c6578706572696d656e74616cf564736f6c63430005100040",
  "source": "// SPDX-License-Identifier: MIT\r\npragma solidity >=0.4.22 <0.8.0;\r\n\r\npragma experimental ABIEncoderV2;\r\n\r\ncontract Points {\r\n    mapping (address => uint8) private points;\r\n    \r\n    function pushPoints(uint8 new_points) public {\r\n        require(new_points > 0, \"Points must be non-zero and non-negative number\");\r\n        points[msg.sender] += new_points;\r\n    }\r\n\r\n    function removePoints(uint8 new_points) public {\r\n        require(new_points > 0, \"Points must be non-zero and non-negative number\");\r\n        points[msg.sender] -= new_points;\r\n    }\r\n    \r\n    function getTotalPoints() public view returns (uint8) {\r\n        return points[msg.sender];\r\n    }\r\n}",
  "sourcePath": "C:/Users/smithj40/Documents/Blockchain/Final_Project/central-clicker-truffle/contracts/points.sol",
  "compiler": {
    "name": "solc",
    "version": "0.5.16+commit.9c3226ce.Emscripten.clang"
  },
  "schemaVersion": "3.3.1",
  "updatedAt": "2020-12-17T02:11:09.462Z",
  "networkType": "ethereum",
  "devdoc": {
    "methods": {}
  },
  "userdoc": {
    "methods": {}
  }
}